{
    "abi": [
        {
            "inputs": [
                {
                    "internalType": "uint256",
                    "name": "minimum",
                    "type": "uint256"
                },
                {
                    "internalType": "address",
                    "name": "creator",
                    "type": "address"
                }
            ],
            "stateMutability": "nonpayable",
            "type": "constructor"
        },
        {
            "inputs": [
                {
                    "internalType": "uint256",
                    "name": "index",
                    "type": "uint256"
                }
            ],
            "name": "approveRequest",
            "outputs": [],
            "stateMutability": "nonpayable",
            "type": "function"
        },
        {
            "inputs": [
                {
                    "internalType": "address",
                    "name": "",
                    "type": "address"
                }
            ],
            "name": "approvers",
            "outputs": [
                {
                    "internalType": "bool",
                    "name": "",
                    "type": "bool"
                }
            ],
            "stateMutability": "view",
            "type": "function"
        },
        {
            "inputs": [],
            "name": "approversCount",
            "outputs": [
                {
                    "internalType": "uint256",
                    "name": "",
                    "type": "uint256"
                }
            ],
            "stateMutability": "view",
            "type": "function"
        },
        {
            "inputs": [],
            "name": "contribute",
            "outputs": [],
            "stateMutability": "payable",
            "type": "function"
        },
        {
            "inputs": [
                {
                    "internalType": "string",
                    "name": "description",
                    "type": "string"
                },
                {
                    "internalType": "uint256",
                    "name": "value",
                    "type": "uint256"
                },
                {
                    "internalType": "address",
                    "name": "recipient",
                    "type": "address"
                }
            ],
            "name": "createRequest",
            "outputs": [],
            "stateMutability": "nonpayable",
            "type": "function"
        },
        {
            "inputs": [
                {
                    "internalType": "uint256",
                    "name": "index",
                    "type": "uint256"
                }
            ],
            "name": "finalizeRequest",
            "outputs": [],
            "stateMutability": "nonpayable",
            "type": "function"
        },
        {
            "inputs": [],
            "name": "manager",
            "outputs": [
                {
                    "internalType": "address",
                    "name": "",
                    "type": "address"
                }
            ],
            "stateMutability": "view",
            "type": "function"
        },
        {
            "inputs": [],
            "name": "minimumContribution",
            "outputs": [
                {
                    "internalType": "uint256",
                    "name": "",
                    "type": "uint256"
                }
            ],
            "stateMutability": "view",
            "type": "function"
        },
        {
            "inputs": [
                {
                    "internalType": "uint256",
                    "name": "",
                    "type": "uint256"
                }
            ],
            "name": "requests",
            "outputs": [
                {
                    "internalType": "string",
                    "name": "description",
                    "type": "string"
                },
                {
                    "internalType": "uint256",
                    "name": "value",
                    "type": "uint256"
                },
                {
                    "internalType": "address",
                    "name": "recipient",
                    "type": "address"
                },
                {
                    "internalType": "bool",
                    "name": "complete",
                    "type": "bool"
                },
                {
                    "internalType": "uint256",
                    "name": "approvalCount",
                    "type": "uint256"
                }
            ],
            "stateMutability": "view",
            "type": "function"
        }
    ],
    "evm": {
        "bytecode": {
            "linkReferences": {},
            "object": "608060405234801561000f575f5ffd5b506040516111b13803806111b18339818101604052810190610031919061010f565b805f5f6101000a81548173ffffffffffffffffffffffffffffffffffffffff021916908373ffffffffffffffffffffffffffffffffffffffff16021790555081600181905550505061014d565b5f5ffd5b5f819050919050565b61009481610082565b811461009e575f5ffd5b50565b5f815190506100af8161008b565b92915050565b5f73ffffffffffffffffffffffffffffffffffffffff82169050919050565b5f6100de826100b5565b9050919050565b6100ee816100d4565b81146100f8575f5ffd5b50565b5f81519050610109816100e5565b92915050565b5f5f604083850312156101255761012461007e565b5b5f610132858286016100a1565b9250506020610143858286016100fb565b9150509250929050565b6110578061015a5f395ff3fe608060405260043610610085575f3560e01c806382fde0931161005857806382fde093146101575780638a9cfd5514610181578063937e09b1146101a9578063d7bb99ba146101d3578063d7d1bbdb146101dd57610085565b806303441006146100895780630a144391146100b1578063481c6a75146100ed57806381d12c5814610117575b5f5ffd5b348015610094575f5ffd5b506100af60048036038101906100aa919061085c565b610205565b005b3480156100bc575f5ffd5b506100d760048036038101906100d291906108e1565b610343565b6040516100e49190610926565b60405180910390f35b3480156100f8575f5ffd5b50610101610360565b60405161010e919061094e565b60405180910390f35b348015610122575f5ffd5b5061013d6004803603810190610138919061085c565b610384565b60405161014e9594939291906109e6565b60405180910390f35b348015610162575f5ffd5b5061016b610477565b6040516101789190610a3e565b60405180910390f35b34801561018c575f5ffd5b506101a760048036038101906101a29190610b83565b61047d565b005b3480156101b4575f5ffd5b506101bd6105ce565b6040516101ca9190610a3e565b60405180910390f35b6101db6105d4565b005b3480156101e8575f5ffd5b5061020360048036038101906101fe919061085c565b6106da565b005b5f5f9054906101000a900473ffffffffffffffffffffffffffffffffffffffff1673ffffffffffffffffffffffffffffffffffffffff163373ffffffffffffffffffffffffffffffffffffffff161461025c575f5ffd5b5f6003828154811061027157610270610bef565b5b905f5260205f20906005020190508060020160149054906101000a900460ff161561029a575f5ffd5b806004015460026004546102ae9190610c76565b106102b7575f5ffd5b806002015f9054906101000a900473ffffffffffffffffffffffffffffffffffffffff1673ffffffffffffffffffffffffffffffffffffffff166108fc826001015490811502906040515f60405180830381858888f19350505050158015610321573d5f5f3e3d5ffd5b5060018160020160146101000a81548160ff0219169083151502179055505050565b6002602052805f5260405f205f915054906101000a900460ff1681565b5f5f9054906101000a900473ffffffffffffffffffffffffffffffffffffffff1681565b60038181548110610393575f80fd5b905f5260205f2090600502015f91509050805f0180546103b290610cd3565b80601f01602080910402602001604051908101604052809291908181526020018280546103de90610cd3565b80156104295780601f1061040057610100808354040283529160200191610429565b820191905f5260205f20905b81548152906001019060200180831161040c57829003601f168201915b505050505090806001015490806002015f9054906101000a900473ffffffffffffffffffffffffffffffffffffffff16908060020160149054906101000a900460ff16908060040154905085565b60045481565b5f5f9054906101000a900473ffffffffffffffffffffffffffffffffffffffff1673ffffffffffffffffffffffffffffffffffffffff163373ffffffffffffffffffffffffffffffffffffffff16146104d4575f5ffd5b60025f3373ffffffffffffffffffffffffffffffffffffffff1673ffffffffffffffffffffffffffffffffffffffff1681526020019081526020015f205f9054906101000a900460ff16610526575f5ffd5b5f600360018160018154018082558091505003905f5260205f209060050201905083815f0190816105579190610ea3565b5082816001018190555081816002015f6101000a81548173ffffffffffffffffffffffffffffffffffffffff021916908373ffffffffffffffffffffffffffffffffffffffff1602179055505f8160020160146101000a81548160ff0219169083151502179055505f816004018190555050505050565b60015481565b6001543410156105e2575f5ffd5b60025f3373ffffffffffffffffffffffffffffffffffffffff1673ffffffffffffffffffffffffffffffffffffffff1681526020019081526020015f205f9054906101000a900460ff161561066c576040517f08c379a000000000000000000000000000000000000000000000000000000000815260040161066390610fbc565b60405180910390fd5b600160025f3373ffffffffffffffffffffffffffffffffffffffff1673ffffffffffffffffffffffffffffffffffffffff1681526020019081526020015f205f6101000a81548160ff02191690831515021790555060045f8154809291906106d390610fda565b9190505550565b5f600382815481106106ef576106ee610bef565b5b905f5260205f209060050201905060025f3373ffffffffffffffffffffffffffffffffffffffff1673ffffffffffffffffffffffffffffffffffffffff1681526020019081526020015f205f9054906101000a900460ff1661074f575f5ffd5b806003015f3373ffffffffffffffffffffffffffffffffffffffff1673ffffffffffffffffffffffffffffffffffffffff1681526020019081526020015f205f9054906101000a900460ff16156107a4575f5ffd5b6001816003015f3373ffffffffffffffffffffffffffffffffffffffff1673ffffffffffffffffffffffffffffffffffffffff1681526020019081526020015f205f6101000a81548160ff021916908315150217905550806004015f81548092919061080f90610fda565b91905055505050565b5f604051905090565b5f5ffd5b5f5ffd5b5f819050919050565b61083b81610829565b8114610845575f5ffd5b50565b5f8135905061085681610832565b92915050565b5f6020828403121561087157610870610821565b5b5f61087e84828501610848565b91505092915050565b5f73ffffffffffffffffffffffffffffffffffffffff82169050919050565b5f6108b082610887565b9050919050565b6108c0816108a6565b81146108ca575f5ffd5b50565b5f813590506108db816108b7565b92915050565b5f602082840312156108f6576108f5610821565b5b5f610903848285016108cd565b91505092915050565b5f8115159050919050565b6109208161090c565b82525050565b5f6020820190506109395f830184610917565b92915050565b610948816108a6565b82525050565b5f6020820190506109615f83018461093f565b92915050565b5f81519050919050565b5f82825260208201905092915050565b8281835e5f83830152505050565b5f601f19601f8301169050919050565b5f6109a982610967565b6109b38185610971565b93506109c3818560208601610981565b6109cc8161098f565b840191505092915050565b6109e081610829565b82525050565b5f60a0820190508181035f8301526109fe818861099f565b9050610a0d60208301876109d7565b610a1a604083018661093f565b610a276060830185610917565b610a3460808301846109d7565b9695505050505050565b5f602082019050610a515f8301846109d7565b92915050565b5f5ffd5b5f5ffd5b7f4e487b71000000000000000000000000000000000000000000000000000000005f52604160045260245ffd5b610a958261098f565b810181811067ffffffffffffffff82111715610ab457610ab3610a5f565b5b80604052505050565b5f610ac6610818565b9050610ad28282610a8c565b919050565b5f67ffffffffffffffff821115610af157610af0610a5f565b5b610afa8261098f565b9050602081019050919050565b828183375f83830152505050565b5f610b27610b2284610ad7565b610abd565b905082815260208101848484011115610b4357610b42610a5b565b5b610b4e848285610b07565b509392505050565b5f82601f830112610b6a57610b69610a57565b5b8135610b7a848260208601610b15565b91505092915050565b5f5f5f60608486031215610b9a57610b99610821565b5b5f84013567ffffffffffffffff811115610bb757610bb6610825565b5b610bc386828701610b56565b9350506020610bd486828701610848565b9250506040610be5868287016108cd565b9150509250925092565b7f4e487b71000000000000000000000000000000000000000000000000000000005f52603260045260245ffd5b7f4e487b71000000000000000000000000000000000000000000000000000000005f52601260045260245ffd5b7f4e487b71000000000000000000000000000000000000000000000000000000005f52601160045260245ffd5b5f610c8082610829565b9150610c8b83610829565b925082610c9b57610c9a610c1c565b5b828204905092915050565b7f4e487b71000000000000000000000000000000000000000000000000000000005f52602260045260245ffd5b5f6002820490506001821680610cea57607f821691505b602082108103610cfd57610cfc610ca6565b5b50919050565b5f819050815f5260205f209050919050565b5f6020601f8301049050919050565b5f82821b905092915050565b5f60088302610d5f7fffffffffffffffffffffffffffffffffffffffffffffffffffffffffffffffff82610d24565b610d698683610d24565b95508019841693508086168417925050509392505050565b5f819050919050565b5f610da4610d9f610d9a84610829565b610d81565b610829565b9050919050565b5f819050919050565b610dbd83610d8a565b610dd1610dc982610dab565b848454610d30565b825550505050565b5f5f905090565b610de8610dd9565b610df3818484610db4565b505050565b5b81811015610e1657610e0b5f82610de0565b600181019050610df9565b5050565b601f821115610e5b57610e2c81610d03565b610e3584610d15565b81016020851015610e44578190505b610e58610e5085610d15565b830182610df8565b50505b505050565b5f82821c905092915050565b5f610e7b5f1984600802610e60565b1980831691505092915050565b5f610e938383610e6c565b9150826002028217905092915050565b610eac82610967565b67ffffffffffffffff811115610ec557610ec4610a5f565b5b610ecf8254610cd3565b610eda828285610e1a565b5f60209050601f831160018114610f0b575f8415610ef9578287015190505b610f038582610e88565b865550610f6a565b601f198416610f1986610d03565b5f5b82811015610f4057848901518255600182019150602085019450602081019050610f1b565b86831015610f5d5784890151610f59601f891682610e6c565b8355505b6001600288020188555050505b505050505050565b7f416c726561647920636f6e7472696275746564000000000000000000000000005f82015250565b5f610fa6601383610971565b9150610fb182610f72565b602082019050919050565b5f6020820190508181035f830152610fd381610f9a565b9050919050565b5f610fe482610829565b91507fffffffffffffffffffffffffffffffffffffffffffffffffffffffffffffffff820361101657611015610c49565b5b60018201905091905056fea2646970667358221220f3f5e346a45bb346a587ffe60c0b219eaee90628ae54b27bb747803c4935b20864736f6c634300081e0033",
            "opcodes": "PUSH1 0x80 PUSH1 0x40 MSTORE CALLVALUE DUP1 ISZERO PUSH2 0xF JUMPI PUSH0 PUSH0 REVERT JUMPDEST POP PUSH1 0x40 MLOAD PUSH2 0x11B1 CODESIZE SUB DUP1 PUSH2 0x11B1 DUP4 CODECOPY DUP2 DUP2 ADD PUSH1 0x40 MSTORE DUP2 ADD SWAP1 PUSH2 0x31 SWAP2 SWAP1 PUSH2 0x10F JUMP JUMPDEST DUP1 PUSH0 PUSH0 PUSH2 0x100 EXP DUP2 SLOAD DUP2 PUSH20 0xFFFFFFFFFFFFFFFFFFFFFFFFFFFFFFFFFFFFFFFF MUL NOT AND SWAP1 DUP4 PUSH20 0xFFFFFFFFFFFFFFFFFFFFFFFFFFFFFFFFFFFFFFFF AND MUL OR SWAP1 SSTORE POP DUP2 PUSH1 0x1 DUP2 SWAP1 SSTORE POP POP POP PUSH2 0x14D JUMP JUMPDEST PUSH0 PUSH0 REVERT JUMPDEST PUSH0 DUP2 SWAP1 POP SWAP2 SWAP1 POP JUMP JUMPDEST PUSH2 0x94 DUP2 PUSH2 0x82 JUMP JUMPDEST DUP2 EQ PUSH2 0x9E JUMPI PUSH0 PUSH0 REVERT JUMPDEST POP JUMP JUMPDEST PUSH0 DUP2 MLOAD SWAP1 POP PUSH2 0xAF DUP2 PUSH2 0x8B JUMP JUMPDEST SWAP3 SWAP2 POP POP JUMP JUMPDEST PUSH0 PUSH20 0xFFFFFFFFFFFFFFFFFFFFFFFFFFFFFFFFFFFFFFFF DUP3 AND SWAP1 POP SWAP2 SWAP1 POP JUMP JUMPDEST PUSH0 PUSH2 0xDE DUP3 PUSH2 0xB5 JUMP JUMPDEST SWAP1 POP SWAP2 SWAP1 POP JUMP JUMPDEST PUSH2 0xEE DUP2 PUSH2 0xD4 JUMP JUMPDEST DUP2 EQ PUSH2 0xF8 JUMPI PUSH0 PUSH0 REVERT JUMPDEST POP JUMP JUMPDEST PUSH0 DUP2 MLOAD SWAP1 POP PUSH2 0x109 DUP2 PUSH2 0xE5 JUMP JUMPDEST SWAP3 SWAP2 POP POP JUMP JUMPDEST PUSH0 PUSH0 PUSH1 0x40 DUP4 DUP6 SUB SLT ISZERO PUSH2 0x125 JUMPI PUSH2 0x124 PUSH2 0x7E JUMP JUMPDEST JUMPDEST PUSH0 PUSH2 0x132 DUP6 DUP3 DUP7 ADD PUSH2 0xA1 JUMP JUMPDEST SWAP3 POP POP PUSH1 0x20 PUSH2 0x143 DUP6 DUP3 DUP7 ADD PUSH2 0xFB JUMP JUMPDEST SWAP2 POP POP SWAP3 POP SWAP3 SWAP1 POP JUMP JUMPDEST PUSH2 0x1057 DUP1 PUSH2 0x15A PUSH0 CODECOPY PUSH0 RETURN INVALID PUSH1 0x80 PUSH1 0x40 MSTORE PUSH1 0x4 CALLDATASIZE LT PUSH2 0x85 JUMPI PUSH0 CALLDATALOAD PUSH1 0xE0 SHR DUP1 PUSH4 0x82FDE093 GT PUSH2 0x58 JUMPI DUP1 PUSH4 0x82FDE093 EQ PUSH2 0x157 JUMPI DUP1 PUSH4 0x8A9CFD55 EQ PUSH2 0x181 JUMPI DUP1 PUSH4 0x937E09B1 EQ PUSH2 0x1A9 JUMPI DUP1 PUSH4 0xD7BB99BA EQ PUSH2 0x1D3 JUMPI DUP1 PUSH4 0xD7D1BBDB EQ PUSH2 0x1DD JUMPI PUSH2 0x85 JUMP JUMPDEST DUP1 PUSH4 0x3441006 EQ PUSH2 0x89 JUMPI DUP1 PUSH4 0xA144391 EQ PUSH2 0xB1 JUMPI DUP1 PUSH4 0x481C6A75 EQ PUSH2 0xED JUMPI DUP1 PUSH4 0x81D12C58 EQ PUSH2 0x117 JUMPI JUMPDEST PUSH0 PUSH0 REVERT JUMPDEST CALLVALUE DUP1 ISZERO PUSH2 0x94 JUMPI PUSH0 PUSH0 REVERT JUMPDEST POP PUSH2 0xAF PUSH1 0x4 DUP1 CALLDATASIZE SUB DUP2 ADD SWAP1 PUSH2 0xAA SWAP2 SWAP1 PUSH2 0x85C JUMP JUMPDEST PUSH2 0x205 JUMP JUMPDEST STOP JUMPDEST CALLVALUE DUP1 ISZERO PUSH2 0xBC JUMPI PUSH0 PUSH0 REVERT JUMPDEST POP PUSH2 0xD7 PUSH1 0x4 DUP1 CALLDATASIZE SUB DUP2 ADD SWAP1 PUSH2 0xD2 SWAP2 SWAP1 PUSH2 0x8E1 JUMP JUMPDEST PUSH2 0x343 JUMP JUMPDEST PUSH1 0x40 MLOAD PUSH2 0xE4 SWAP2 SWAP1 PUSH2 0x926 JUMP JUMPDEST PUSH1 0x40 MLOAD DUP1 SWAP2 SUB SWAP1 RETURN JUMPDEST CALLVALUE DUP1 ISZERO PUSH2 0xF8 JUMPI PUSH0 PUSH0 REVERT JUMPDEST POP PUSH2 0x101 PUSH2 0x360 JUMP JUMPDEST PUSH1 0x40 MLOAD PUSH2 0x10E SWAP2 SWAP1 PUSH2 0x94E JUMP JUMPDEST PUSH1 0x40 MLOAD DUP1 SWAP2 SUB SWAP1 RETURN JUMPDEST CALLVALUE DUP1 ISZERO PUSH2 0x122 JUMPI PUSH0 PUSH0 REVERT JUMPDEST POP PUSH2 0x13D PUSH1 0x4 DUP1 CALLDATASIZE SUB DUP2 ADD SWAP1 PUSH2 0x138 SWAP2 SWAP1 PUSH2 0x85C JUMP JUMPDEST PUSH2 0x384 JUMP JUMPDEST PUSH1 0x40 MLOAD PUSH2 0x14E SWAP6 SWAP5 SWAP4 SWAP3 SWAP2 SWAP1 PUSH2 0x9E6 JUMP JUMPDEST PUSH1 0x40 MLOAD DUP1 SWAP2 SUB SWAP1 RETURN JUMPDEST CALLVALUE DUP1 ISZERO PUSH2 0x162 JUMPI PUSH0 PUSH0 REVERT JUMPDEST POP PUSH2 0x16B PUSH2 0x477 JUMP JUMPDEST PUSH1 0x40 MLOAD PUSH2 0x178 SWAP2 SWAP1 PUSH2 0xA3E JUMP JUMPDEST PUSH1 0x40 MLOAD DUP1 SWAP2 SUB SWAP1 RETURN JUMPDEST CALLVALUE DUP1 ISZERO PUSH2 0x18C JUMPI PUSH0 PUSH0 REVERT JUMPDEST POP PUSH2 0x1A7 PUSH1 0x4 DUP1 CALLDATASIZE SUB DUP2 ADD SWAP1 PUSH2 0x1A2 SWAP2 SWAP1 PUSH2 0xB83 JUMP JUMPDEST PUSH2 0x47D JUMP JUMPDEST STOP JUMPDEST CALLVALUE DUP1 ISZERO PUSH2 0x1B4 JUMPI PUSH0 PUSH0 REVERT JUMPDEST POP PUSH2 0x1BD PUSH2 0x5CE JUMP JUMPDEST PUSH1 0x40 MLOAD PUSH2 0x1CA SWAP2 SWAP1 PUSH2 0xA3E JUMP JUMPDEST PUSH1 0x40 MLOAD DUP1 SWAP2 SUB SWAP1 RETURN JUMPDEST PUSH2 0x1DB PUSH2 0x5D4 JUMP JUMPDEST STOP JUMPDEST CALLVALUE DUP1 ISZERO PUSH2 0x1E8 JUMPI PUSH0 PUSH0 REVERT JUMPDEST POP PUSH2 0x203 PUSH1 0x4 DUP1 CALLDATASIZE SUB DUP2 ADD SWAP1 PUSH2 0x1FE SWAP2 SWAP1 PUSH2 0x85C JUMP JUMPDEST PUSH2 0x6DA JUMP JUMPDEST STOP JUMPDEST PUSH0 PUSH0 SWAP1 SLOAD SWAP1 PUSH2 0x100 EXP SWAP1 DIV PUSH20 0xFFFFFFFFFFFFFFFFFFFFFFFFFFFFFFFFFFFFFFFF AND PUSH20 0xFFFFFFFFFFFFFFFFFFFFFFFFFFFFFFFFFFFFFFFF AND CALLER PUSH20 0xFFFFFFFFFFFFFFFFFFFFFFFFFFFFFFFFFFFFFFFF AND EQ PUSH2 0x25C JUMPI PUSH0 PUSH0 REVERT JUMPDEST PUSH0 PUSH1 0x3 DUP3 DUP2 SLOAD DUP2 LT PUSH2 0x271 JUMPI PUSH2 0x270 PUSH2 0xBEF JUMP JUMPDEST JUMPDEST SWAP1 PUSH0 MSTORE PUSH1 0x20 PUSH0 KECCAK256 SWAP1 PUSH1 0x5 MUL ADD SWAP1 POP DUP1 PUSH1 0x2 ADD PUSH1 0x14 SWAP1 SLOAD SWAP1 PUSH2 0x100 EXP SWAP1 DIV PUSH1 0xFF AND ISZERO PUSH2 0x29A JUMPI PUSH0 PUSH0 REVERT JUMPDEST DUP1 PUSH1 0x4 ADD SLOAD PUSH1 0x2 PUSH1 0x4 SLOAD PUSH2 0x2AE SWAP2 SWAP1 PUSH2 0xC76 JUMP JUMPDEST LT PUSH2 0x2B7 JUMPI PUSH0 PUSH0 REVERT JUMPDEST DUP1 PUSH1 0x2 ADD PUSH0 SWAP1 SLOAD SWAP1 PUSH2 0x100 EXP SWAP1 DIV PUSH20 0xFFFFFFFFFFFFFFFFFFFFFFFFFFFFFFFFFFFFFFFF AND PUSH20 0xFFFFFFFFFFFFFFFFFFFFFFFFFFFFFFFFFFFFFFFF AND PUSH2 0x8FC DUP3 PUSH1 0x1 ADD SLOAD SWAP1 DUP2 ISZERO MUL SWAP1 PUSH1 0x40 MLOAD PUSH0 PUSH1 0x40 MLOAD DUP1 DUP4 SUB DUP2 DUP6 DUP9 DUP9 CALL SWAP4 POP POP POP POP ISZERO DUP1 ISZERO PUSH2 0x321 JUMPI RETURNDATASIZE PUSH0 PUSH0 RETURNDATACOPY RETURNDATASIZE PUSH0 REVERT JUMPDEST POP PUSH1 0x1 DUP2 PUSH1 0x2 ADD PUSH1 0x14 PUSH2 0x100 EXP DUP2 SLOAD DUP2 PUSH1 0xFF MUL NOT AND SWAP1 DUP4 ISZERO ISZERO MUL OR SWAP1 SSTORE POP POP POP JUMP JUMPDEST PUSH1 0x2 PUSH1 0x20 MSTORE DUP1 PUSH0 MSTORE PUSH1 0x40 PUSH0 KECCAK256 PUSH0 SWAP2 POP SLOAD SWAP1 PUSH2 0x100 EXP SWAP1 DIV PUSH1 0xFF AND DUP2 JUMP JUMPDEST PUSH0 PUSH0 SWAP1 SLOAD SWAP1 PUSH2 0x100 EXP SWAP1 DIV PUSH20 0xFFFFFFFFFFFFFFFFFFFFFFFFFFFFFFFFFFFFFFFF AND DUP2 JUMP JUMPDEST PUSH1 0x3 DUP2 DUP2 SLOAD DUP2 LT PUSH2 0x393 JUMPI PUSH0 DUP1 REVERT JUMPDEST SWAP1 PUSH0 MSTORE PUSH1 0x20 PUSH0 KECCAK256 SWAP1 PUSH1 0x5 MUL ADD PUSH0 SWAP2 POP SWAP1 POP DUP1 PUSH0 ADD DUP1 SLOAD PUSH2 0x3B2 SWAP1 PUSH2 0xCD3 JUMP JUMPDEST DUP1 PUSH1 0x1F ADD PUSH1 0x20 DUP1 SWAP2 DIV MUL PUSH1 0x20 ADD PUSH1 0x40 MLOAD SWAP1 DUP2 ADD PUSH1 0x40 MSTORE DUP1 SWAP3 SWAP2 SWAP1 DUP2 DUP2 MSTORE PUSH1 0x20 ADD DUP3 DUP1 SLOAD PUSH2 0x3DE SWAP1 PUSH2 0xCD3 JUMP JUMPDEST DUP1 ISZERO PUSH2 0x429 JUMPI DUP1 PUSH1 0x1F LT PUSH2 0x400 JUMPI PUSH2 0x100 DUP1 DUP4 SLOAD DIV MUL DUP4 MSTORE SWAP2 PUSH1 0x20 ADD SWAP2 PUSH2 0x429 JUMP JUMPDEST DUP3 ADD SWAP2 SWAP1 PUSH0 MSTORE PUSH1 0x20 PUSH0 KECCAK256 SWAP1 JUMPDEST DUP2 SLOAD DUP2 MSTORE SWAP1 PUSH1 0x1 ADD SWAP1 PUSH1 0x20 ADD DUP1 DUP4 GT PUSH2 0x40C JUMPI DUP3 SWAP1 SUB PUSH1 0x1F AND DUP3 ADD SWAP2 JUMPDEST POP POP POP POP POP SWAP1 DUP1 PUSH1 0x1 ADD SLOAD SWAP1 DUP1 PUSH1 0x2 ADD PUSH0 SWAP1 SLOAD SWAP1 PUSH2 0x100 EXP SWAP1 DIV PUSH20 0xFFFFFFFFFFFFFFFFFFFFFFFFFFFFFFFFFFFFFFFF AND SWAP1 DUP1 PUSH1 0x2 ADD PUSH1 0x14 SWAP1 SLOAD SWAP1 PUSH2 0x100 EXP SWAP1 DIV PUSH1 0xFF AND SWAP1 DUP1 PUSH1 0x4 ADD SLOAD SWAP1 POP DUP6 JUMP JUMPDEST PUSH1 0x4 SLOAD DUP2 JUMP JUMPDEST PUSH0 PUSH0 SWAP1 SLOAD SWAP1 PUSH2 0x100 EXP SWAP1 DIV PUSH20 0xFFFFFFFFFFFFFFFFFFFFFFFFFFFFFFFFFFFFFFFF AND PUSH20 0xFFFFFFFFFFFFFFFFFFFFFFFFFFFFFFFFFFFFFFFF AND CALLER PUSH20 0xFFFFFFFFFFFFFFFFFFFFFFFFFFFFFFFFFFFFFFFF AND EQ PUSH2 0x4D4 JUMPI PUSH0 PUSH0 REVERT JUMPDEST PUSH1 0x2 PUSH0 CALLER PUSH20 0xFFFFFFFFFFFFFFFFFFFFFFFFFFFFFFFFFFFFFFFF AND PUSH20 0xFFFFFFFFFFFFFFFFFFFFFFFFFFFFFFFFFFFFFFFF AND DUP2 MSTORE PUSH1 0x20 ADD SWAP1 DUP2 MSTORE PUSH1 0x20 ADD PUSH0 KECCAK256 PUSH0 SWAP1 SLOAD SWAP1 PUSH2 0x100 EXP SWAP1 DIV PUSH1 0xFF AND PUSH2 0x526 JUMPI PUSH0 PUSH0 REVERT JUMPDEST PUSH0 PUSH1 0x3 PUSH1 0x1 DUP2 PUSH1 0x1 DUP2 SLOAD ADD DUP1 DUP3 SSTORE DUP1 SWAP2 POP POP SUB SWAP1 PUSH0 MSTORE PUSH1 0x20 PUSH0 KECCAK256 SWAP1 PUSH1 0x5 MUL ADD SWAP1 POP DUP4 DUP2 PUSH0 ADD SWAP1 DUP2 PUSH2 0x557 SWAP2 SWAP1 PUSH2 0xEA3 JUMP JUMPDEST POP DUP3 DUP2 PUSH1 0x1 ADD DUP2 SWAP1 SSTORE POP DUP2 DUP2 PUSH1 0x2 ADD PUSH0 PUSH2 0x100 EXP DUP2 SLOAD DUP2 PUSH20 0xFFFFFFFFFFFFFFFFFFFFFFFFFFFFFFFFFFFFFFFF MUL NOT AND SWAP1 DUP4 PUSH20 0xFFFFFFFFFFFFFFFFFFFFFFFFFFFFFFFFFFFFFFFF AND MUL OR SWAP1 SSTORE POP PUSH0 DUP2 PUSH1 0x2 ADD PUSH1 0x14 PUSH2 0x100 EXP DUP2 SLOAD DUP2 PUSH1 0xFF MUL NOT AND SWAP1 DUP4 ISZERO ISZERO MUL OR SWAP1 SSTORE POP PUSH0 DUP2 PUSH1 0x4 ADD DUP2 SWAP1 SSTORE POP POP POP POP POP JUMP JUMPDEST PUSH1 0x1 SLOAD DUP2 JUMP JUMPDEST PUSH1 0x1 SLOAD CALLVALUE LT ISZERO PUSH2 0x5E2 JUMPI PUSH0 PUSH0 REVERT JUMPDEST PUSH1 0x2 PUSH0 CALLER PUSH20 0xFFFFFFFFFFFFFFFFFFFFFFFFFFFFFFFFFFFFFFFF AND PUSH20 0xFFFFFFFFFFFFFFFFFFFFFFFFFFFFFFFFFFFFFFFF AND DUP2 MSTORE PUSH1 0x20 ADD SWAP1 DUP2 MSTORE PUSH1 0x20 ADD PUSH0 KECCAK256 PUSH0 SWAP1 SLOAD SWAP1 PUSH2 0x100 EXP SWAP1 DIV PUSH1 0xFF AND ISZERO PUSH2 0x66C JUMPI PUSH1 0x40 MLOAD PUSH32 0x8C379A000000000000000000000000000000000000000000000000000000000 DUP2 MSTORE PUSH1 0x4 ADD PUSH2 0x663 SWAP1 PUSH2 0xFBC JUMP JUMPDEST PUSH1 0x40 MLOAD DUP1 SWAP2 SUB SWAP1 REVERT JUMPDEST PUSH1 0x1 PUSH1 0x2 PUSH0 CALLER PUSH20 0xFFFFFFFFFFFFFFFFFFFFFFFFFFFFFFFFFFFFFFFF AND PUSH20 0xFFFFFFFFFFFFFFFFFFFFFFFFFFFFFFFFFFFFFFFF AND DUP2 MSTORE PUSH1 0x20 ADD SWAP1 DUP2 MSTORE PUSH1 0x20 ADD PUSH0 KECCAK256 PUSH0 PUSH2 0x100 EXP DUP2 SLOAD DUP2 PUSH1 0xFF MUL NOT AND SWAP1 DUP4 ISZERO ISZERO MUL OR SWAP1 SSTORE POP PUSH1 0x4 PUSH0 DUP2 SLOAD DUP1 SWAP3 SWAP2 SWAP1 PUSH2 0x6D3 SWAP1 PUSH2 0xFDA JUMP JUMPDEST SWAP2 SWAP1 POP SSTORE POP JUMP JUMPDEST PUSH0 PUSH1 0x3 DUP3 DUP2 SLOAD DUP2 LT PUSH2 0x6EF JUMPI PUSH2 0x6EE PUSH2 0xBEF JUMP JUMPDEST JUMPDEST SWAP1 PUSH0 MSTORE PUSH1 0x20 PUSH0 KECCAK256 SWAP1 PUSH1 0x5 MUL ADD SWAP1 POP PUSH1 0x2 PUSH0 CALLER PUSH20 0xFFFFFFFFFFFFFFFFFFFFFFFFFFFFFFFFFFFFFFFF AND PUSH20 0xFFFFFFFFFFFFFFFFFFFFFFFFFFFFFFFFFFFFFFFF AND DUP2 MSTORE PUSH1 0x20 ADD SWAP1 DUP2 MSTORE PUSH1 0x20 ADD PUSH0 KECCAK256 PUSH0 SWAP1 SLOAD SWAP1 PUSH2 0x100 EXP SWAP1 DIV PUSH1 0xFF AND PUSH2 0x74F JUMPI PUSH0 PUSH0 REVERT JUMPDEST DUP1 PUSH1 0x3 ADD PUSH0 CALLER PUSH20 0xFFFFFFFFFFFFFFFFFFFFFFFFFFFFFFFFFFFFFFFF AND PUSH20 0xFFFFFFFFFFFFFFFFFFFFFFFFFFFFFFFFFFFFFFFF AND DUP2 MSTORE PUSH1 0x20 ADD SWAP1 DUP2 MSTORE PUSH1 0x20 ADD PUSH0 KECCAK256 PUSH0 SWAP1 SLOAD SWAP1 PUSH2 0x100 EXP SWAP1 DIV PUSH1 0xFF AND ISZERO PUSH2 0x7A4 JUMPI PUSH0 PUSH0 REVERT JUMPDEST PUSH1 0x1 DUP2 PUSH1 0x3 ADD PUSH0 CALLER PUSH20 0xFFFFFFFFFFFFFFFFFFFFFFFFFFFFFFFFFFFFFFFF AND PUSH20 0xFFFFFFFFFFFFFFFFFFFFFFFFFFFFFFFFFFFFFFFF AND DUP2 MSTORE PUSH1 0x20 ADD SWAP1 DUP2 MSTORE PUSH1 0x20 ADD PUSH0 KECCAK256 PUSH0 PUSH2 0x100 EXP DUP2 SLOAD DUP2 PUSH1 0xFF MUL NOT AND SWAP1 DUP4 ISZERO ISZERO MUL OR SWAP1 SSTORE POP DUP1 PUSH1 0x4 ADD PUSH0 DUP2 SLOAD DUP1 SWAP3 SWAP2 SWAP1 PUSH2 0x80F SWAP1 PUSH2 0xFDA JUMP JUMPDEST SWAP2 SWAP1 POP SSTORE POP POP POP JUMP JUMPDEST PUSH0 PUSH1 0x40 MLOAD SWAP1 POP SWAP1 JUMP JUMPDEST PUSH0 PUSH0 REVERT JUMPDEST PUSH0 PUSH0 REVERT JUMPDEST PUSH0 DUP2 SWAP1 POP SWAP2 SWAP1 POP JUMP JUMPDEST PUSH2 0x83B DUP2 PUSH2 0x829 JUMP JUMPDEST DUP2 EQ PUSH2 0x845 JUMPI PUSH0 PUSH0 REVERT JUMPDEST POP JUMP JUMPDEST PUSH0 DUP2 CALLDATALOAD SWAP1 POP PUSH2 0x856 DUP2 PUSH2 0x832 JUMP JUMPDEST SWAP3 SWAP2 POP POP JUMP JUMPDEST PUSH0 PUSH1 0x20 DUP3 DUP5 SUB SLT ISZERO PUSH2 0x871 JUMPI PUSH2 0x870 PUSH2 0x821 JUMP JUMPDEST JUMPDEST PUSH0 PUSH2 0x87E DUP5 DUP3 DUP6 ADD PUSH2 0x848 JUMP JUMPDEST SWAP2 POP POP SWAP3 SWAP2 POP POP JUMP JUMPDEST PUSH0 PUSH20 0xFFFFFFFFFFFFFFFFFFFFFFFFFFFFFFFFFFFFFFFF DUP3 AND SWAP1 POP SWAP2 SWAP1 POP JUMP JUMPDEST PUSH0 PUSH2 0x8B0 DUP3 PUSH2 0x887 JUMP JUMPDEST SWAP1 POP SWAP2 SWAP1 POP JUMP JUMPDEST PUSH2 0x8C0 DUP2 PUSH2 0x8A6 JUMP JUMPDEST DUP2 EQ PUSH2 0x8CA JUMPI PUSH0 PUSH0 REVERT JUMPDEST POP JUMP JUMPDEST PUSH0 DUP2 CALLDATALOAD SWAP1 POP PUSH2 0x8DB DUP2 PUSH2 0x8B7 JUMP JUMPDEST SWAP3 SWAP2 POP POP JUMP JUMPDEST PUSH0 PUSH1 0x20 DUP3 DUP5 SUB SLT ISZERO PUSH2 0x8F6 JUMPI PUSH2 0x8F5 PUSH2 0x821 JUMP JUMPDEST JUMPDEST PUSH0 PUSH2 0x903 DUP5 DUP3 DUP6 ADD PUSH2 0x8CD JUMP JUMPDEST SWAP2 POP POP SWAP3 SWAP2 POP POP JUMP JUMPDEST PUSH0 DUP2 ISZERO ISZERO SWAP1 POP SWAP2 SWAP1 POP JUMP JUMPDEST PUSH2 0x920 DUP2 PUSH2 0x90C JUMP JUMPDEST DUP3 MSTORE POP POP JUMP JUMPDEST PUSH0 PUSH1 0x20 DUP3 ADD SWAP1 POP PUSH2 0x939 PUSH0 DUP4 ADD DUP5 PUSH2 0x917 JUMP JUMPDEST SWAP3 SWAP2 POP POP JUMP JUMPDEST PUSH2 0x948 DUP2 PUSH2 0x8A6 JUMP JUMPDEST DUP3 MSTORE POP POP JUMP JUMPDEST PUSH0 PUSH1 0x20 DUP3 ADD SWAP1 POP PUSH2 0x961 PUSH0 DUP4 ADD DUP5 PUSH2 0x93F JUMP JUMPDEST SWAP3 SWAP2 POP POP JUMP JUMPDEST PUSH0 DUP2 MLOAD SWAP1 POP SWAP2 SWAP1 POP JUMP JUMPDEST PUSH0 DUP3 DUP3 MSTORE PUSH1 0x20 DUP3 ADD SWAP1 POP SWAP3 SWAP2 POP POP JUMP JUMPDEST DUP3 DUP2 DUP4 MCOPY PUSH0 DUP4 DUP4 ADD MSTORE POP POP POP JUMP JUMPDEST PUSH0 PUSH1 0x1F NOT PUSH1 0x1F DUP4 ADD AND SWAP1 POP SWAP2 SWAP1 POP JUMP JUMPDEST PUSH0 PUSH2 0x9A9 DUP3 PUSH2 0x967 JUMP JUMPDEST PUSH2 0x9B3 DUP2 DUP6 PUSH2 0x971 JUMP JUMPDEST SWAP4 POP PUSH2 0x9C3 DUP2 DUP6 PUSH1 0x20 DUP7 ADD PUSH2 0x981 JUMP JUMPDEST PUSH2 0x9CC DUP2 PUSH2 0x98F JUMP JUMPDEST DUP5 ADD SWAP2 POP POP SWAP3 SWAP2 POP POP JUMP JUMPDEST PUSH2 0x9E0 DUP2 PUSH2 0x829 JUMP JUMPDEST DUP3 MSTORE POP POP JUMP JUMPDEST PUSH0 PUSH1 0xA0 DUP3 ADD SWAP1 POP DUP2 DUP2 SUB PUSH0 DUP4 ADD MSTORE PUSH2 0x9FE DUP2 DUP9 PUSH2 0x99F JUMP JUMPDEST SWAP1 POP PUSH2 0xA0D PUSH1 0x20 DUP4 ADD DUP8 PUSH2 0x9D7 JUMP JUMPDEST PUSH2 0xA1A PUSH1 0x40 DUP4 ADD DUP7 PUSH2 0x93F JUMP JUMPDEST PUSH2 0xA27 PUSH1 0x60 DUP4 ADD DUP6 PUSH2 0x917 JUMP JUMPDEST PUSH2 0xA34 PUSH1 0x80 DUP4 ADD DUP5 PUSH2 0x9D7 JUMP JUMPDEST SWAP7 SWAP6 POP POP POP POP POP POP JUMP JUMPDEST PUSH0 PUSH1 0x20 DUP3 ADD SWAP1 POP PUSH2 0xA51 PUSH0 DUP4 ADD DUP5 PUSH2 0x9D7 JUMP JUMPDEST SWAP3 SWAP2 POP POP JUMP JUMPDEST PUSH0 PUSH0 REVERT JUMPDEST PUSH0 PUSH0 REVERT JUMPDEST PUSH32 0x4E487B7100000000000000000000000000000000000000000000000000000000 PUSH0 MSTORE PUSH1 0x41 PUSH1 0x4 MSTORE PUSH1 0x24 PUSH0 REVERT JUMPDEST PUSH2 0xA95 DUP3 PUSH2 0x98F JUMP JUMPDEST DUP2 ADD DUP2 DUP2 LT PUSH8 0xFFFFFFFFFFFFFFFF DUP3 GT OR ISZERO PUSH2 0xAB4 JUMPI PUSH2 0xAB3 PUSH2 0xA5F JUMP JUMPDEST JUMPDEST DUP1 PUSH1 0x40 MSTORE POP POP POP JUMP JUMPDEST PUSH0 PUSH2 0xAC6 PUSH2 0x818 JUMP JUMPDEST SWAP1 POP PUSH2 0xAD2 DUP3 DUP3 PUSH2 0xA8C JUMP JUMPDEST SWAP2 SWAP1 POP JUMP JUMPDEST PUSH0 PUSH8 0xFFFFFFFFFFFFFFFF DUP3 GT ISZERO PUSH2 0xAF1 JUMPI PUSH2 0xAF0 PUSH2 0xA5F JUMP JUMPDEST JUMPDEST PUSH2 0xAFA DUP3 PUSH2 0x98F JUMP JUMPDEST SWAP1 POP PUSH1 0x20 DUP2 ADD SWAP1 POP SWAP2 SWAP1 POP JUMP JUMPDEST DUP3 DUP2 DUP4 CALLDATACOPY PUSH0 DUP4 DUP4 ADD MSTORE POP POP POP JUMP JUMPDEST PUSH0 PUSH2 0xB27 PUSH2 0xB22 DUP5 PUSH2 0xAD7 JUMP JUMPDEST PUSH2 0xABD JUMP JUMPDEST SWAP1 POP DUP3 DUP2 MSTORE PUSH1 0x20 DUP2 ADD DUP5 DUP5 DUP5 ADD GT ISZERO PUSH2 0xB43 JUMPI PUSH2 0xB42 PUSH2 0xA5B JUMP JUMPDEST JUMPDEST PUSH2 0xB4E DUP5 DUP3 DUP6 PUSH2 0xB07 JUMP JUMPDEST POP SWAP4 SWAP3 POP POP POP JUMP JUMPDEST PUSH0 DUP3 PUSH1 0x1F DUP4 ADD SLT PUSH2 0xB6A JUMPI PUSH2 0xB69 PUSH2 0xA57 JUMP JUMPDEST JUMPDEST DUP2 CALLDATALOAD PUSH2 0xB7A DUP5 DUP3 PUSH1 0x20 DUP7 ADD PUSH2 0xB15 JUMP JUMPDEST SWAP2 POP POP SWAP3 SWAP2 POP POP JUMP JUMPDEST PUSH0 PUSH0 PUSH0 PUSH1 0x60 DUP5 DUP7 SUB SLT ISZERO PUSH2 0xB9A JUMPI PUSH2 0xB99 PUSH2 0x821 JUMP JUMPDEST JUMPDEST PUSH0 DUP5 ADD CALLDATALOAD PUSH8 0xFFFFFFFFFFFFFFFF DUP2 GT ISZERO PUSH2 0xBB7 JUMPI PUSH2 0xBB6 PUSH2 0x825 JUMP JUMPDEST JUMPDEST PUSH2 0xBC3 DUP7 DUP3 DUP8 ADD PUSH2 0xB56 JUMP JUMPDEST SWAP4 POP POP PUSH1 0x20 PUSH2 0xBD4 DUP7 DUP3 DUP8 ADD PUSH2 0x848 JUMP JUMPDEST SWAP3 POP POP PUSH1 0x40 PUSH2 0xBE5 DUP7 DUP3 DUP8 ADD PUSH2 0x8CD JUMP JUMPDEST SWAP2 POP POP SWAP3 POP SWAP3 POP SWAP3 JUMP JUMPDEST PUSH32 0x4E487B7100000000000000000000000000000000000000000000000000000000 PUSH0 MSTORE PUSH1 0x32 PUSH1 0x4 MSTORE PUSH1 0x24 PUSH0 REVERT JUMPDEST PUSH32 0x4E487B7100000000000000000000000000000000000000000000000000000000 PUSH0 MSTORE PUSH1 0x12 PUSH1 0x4 MSTORE PUSH1 0x24 PUSH0 REVERT JUMPDEST PUSH32 0x4E487B7100000000000000000000000000000000000000000000000000000000 PUSH0 MSTORE PUSH1 0x11 PUSH1 0x4 MSTORE PUSH1 0x24 PUSH0 REVERT JUMPDEST PUSH0 PUSH2 0xC80 DUP3 PUSH2 0x829 JUMP JUMPDEST SWAP2 POP PUSH2 0xC8B DUP4 PUSH2 0x829 JUMP JUMPDEST SWAP3 POP DUP3 PUSH2 0xC9B JUMPI PUSH2 0xC9A PUSH2 0xC1C JUMP JUMPDEST JUMPDEST DUP3 DUP3 DIV SWAP1 POP SWAP3 SWAP2 POP POP JUMP JUMPDEST PUSH32 0x4E487B7100000000000000000000000000000000000000000000000000000000 PUSH0 MSTORE PUSH1 0x22 PUSH1 0x4 MSTORE PUSH1 0x24 PUSH0 REVERT JUMPDEST PUSH0 PUSH1 0x2 DUP3 DIV SWAP1 POP PUSH1 0x1 DUP3 AND DUP1 PUSH2 0xCEA JUMPI PUSH1 0x7F DUP3 AND SWAP2 POP JUMPDEST PUSH1 0x20 DUP3 LT DUP2 SUB PUSH2 0xCFD JUMPI PUSH2 0xCFC PUSH2 0xCA6 JUMP JUMPDEST JUMPDEST POP SWAP2 SWAP1 POP JUMP JUMPDEST PUSH0 DUP2 SWAP1 POP DUP2 PUSH0 MSTORE PUSH1 0x20 PUSH0 KECCAK256 SWAP1 POP SWAP2 SWAP1 POP JUMP JUMPDEST PUSH0 PUSH1 0x20 PUSH1 0x1F DUP4 ADD DIV SWAP1 POP SWAP2 SWAP1 POP JUMP JUMPDEST PUSH0 DUP3 DUP3 SHL SWAP1 POP SWAP3 SWAP2 POP POP JUMP JUMPDEST PUSH0 PUSH1 0x8 DUP4 MUL PUSH2 0xD5F PUSH32 0xFFFFFFFFFFFFFFFFFFFFFFFFFFFFFFFFFFFFFFFFFFFFFFFFFFFFFFFFFFFFFFFF DUP3 PUSH2 0xD24 JUMP JUMPDEST PUSH2 0xD69 DUP7 DUP4 PUSH2 0xD24 JUMP JUMPDEST SWAP6 POP DUP1 NOT DUP5 AND SWAP4 POP DUP1 DUP7 AND DUP5 OR SWAP3 POP POP POP SWAP4 SWAP3 POP POP POP JUMP JUMPDEST PUSH0 DUP2 SWAP1 POP SWAP2 SWAP1 POP JUMP JUMPDEST PUSH0 PUSH2 0xDA4 PUSH2 0xD9F PUSH2 0xD9A DUP5 PUSH2 0x829 JUMP JUMPDEST PUSH2 0xD81 JUMP JUMPDEST PUSH2 0x829 JUMP JUMPDEST SWAP1 POP SWAP2 SWAP1 POP JUMP JUMPDEST PUSH0 DUP2 SWAP1 POP SWAP2 SWAP1 POP JUMP JUMPDEST PUSH2 0xDBD DUP4 PUSH2 0xD8A JUMP JUMPDEST PUSH2 0xDD1 PUSH2 0xDC9 DUP3 PUSH2 0xDAB JUMP JUMPDEST DUP5 DUP5 SLOAD PUSH2 0xD30 JUMP JUMPDEST DUP3 SSTORE POP POP POP POP JUMP JUMPDEST PUSH0 PUSH0 SWAP1 POP SWAP1 JUMP JUMPDEST PUSH2 0xDE8 PUSH2 0xDD9 JUMP JUMPDEST PUSH2 0xDF3 DUP2 DUP5 DUP5 PUSH2 0xDB4 JUMP JUMPDEST POP POP POP JUMP JUMPDEST JUMPDEST DUP2 DUP2 LT ISZERO PUSH2 0xE16 JUMPI PUSH2 0xE0B PUSH0 DUP3 PUSH2 0xDE0 JUMP JUMPDEST PUSH1 0x1 DUP2 ADD SWAP1 POP PUSH2 0xDF9 JUMP JUMPDEST POP POP JUMP JUMPDEST PUSH1 0x1F DUP3 GT ISZERO PUSH2 0xE5B JUMPI PUSH2 0xE2C DUP2 PUSH2 0xD03 JUMP JUMPDEST PUSH2 0xE35 DUP5 PUSH2 0xD15 JUMP JUMPDEST DUP2 ADD PUSH1 0x20 DUP6 LT ISZERO PUSH2 0xE44 JUMPI DUP2 SWAP1 POP JUMPDEST PUSH2 0xE58 PUSH2 0xE50 DUP6 PUSH2 0xD15 JUMP JUMPDEST DUP4 ADD DUP3 PUSH2 0xDF8 JUMP JUMPDEST POP POP JUMPDEST POP POP POP JUMP JUMPDEST PUSH0 DUP3 DUP3 SHR SWAP1 POP SWAP3 SWAP2 POP POP JUMP JUMPDEST PUSH0 PUSH2 0xE7B PUSH0 NOT DUP5 PUSH1 0x8 MUL PUSH2 0xE60 JUMP JUMPDEST NOT DUP1 DUP4 AND SWAP2 POP POP SWAP3 SWAP2 POP POP JUMP JUMPDEST PUSH0 PUSH2 0xE93 DUP4 DUP4 PUSH2 0xE6C JUMP JUMPDEST SWAP2 POP DUP3 PUSH1 0x2 MUL DUP3 OR SWAP1 POP SWAP3 SWAP2 POP POP JUMP JUMPDEST PUSH2 0xEAC DUP3 PUSH2 0x967 JUMP JUMPDEST PUSH8 0xFFFFFFFFFFFFFFFF DUP2 GT ISZERO PUSH2 0xEC5 JUMPI PUSH2 0xEC4 PUSH2 0xA5F JUMP JUMPDEST JUMPDEST PUSH2 0xECF DUP3 SLOAD PUSH2 0xCD3 JUMP JUMPDEST PUSH2 0xEDA DUP3 DUP3 DUP6 PUSH2 0xE1A JUMP JUMPDEST PUSH0 PUSH1 0x20 SWAP1 POP PUSH1 0x1F DUP4 GT PUSH1 0x1 DUP2 EQ PUSH2 0xF0B JUMPI PUSH0 DUP5 ISZERO PUSH2 0xEF9 JUMPI DUP3 DUP8 ADD MLOAD SWAP1 POP JUMPDEST PUSH2 0xF03 DUP6 DUP3 PUSH2 0xE88 JUMP JUMPDEST DUP7 SSTORE POP PUSH2 0xF6A JUMP JUMPDEST PUSH1 0x1F NOT DUP5 AND PUSH2 0xF19 DUP7 PUSH2 0xD03 JUMP JUMPDEST PUSH0 JUMPDEST DUP3 DUP2 LT ISZERO PUSH2 0xF40 JUMPI DUP5 DUP10 ADD MLOAD DUP3 SSTORE PUSH1 0x1 DUP3 ADD SWAP2 POP PUSH1 0x20 DUP6 ADD SWAP5 POP PUSH1 0x20 DUP2 ADD SWAP1 POP PUSH2 0xF1B JUMP JUMPDEST DUP7 DUP4 LT ISZERO PUSH2 0xF5D JUMPI DUP5 DUP10 ADD MLOAD PUSH2 0xF59 PUSH1 0x1F DUP10 AND DUP3 PUSH2 0xE6C JUMP JUMPDEST DUP4 SSTORE POP JUMPDEST PUSH1 0x1 PUSH1 0x2 DUP9 MUL ADD DUP9 SSTORE POP POP POP JUMPDEST POP POP POP POP POP POP JUMP JUMPDEST PUSH32 0x416C726561647920636F6E747269627574656400000000000000000000000000 PUSH0 DUP3 ADD MSTORE POP JUMP JUMPDEST PUSH0 PUSH2 0xFA6 PUSH1 0x13 DUP4 PUSH2 0x971 JUMP JUMPDEST SWAP2 POP PUSH2 0xFB1 DUP3 PUSH2 0xF72 JUMP JUMPDEST PUSH1 0x20 DUP3 ADD SWAP1 POP SWAP2 SWAP1 POP JUMP JUMPDEST PUSH0 PUSH1 0x20 DUP3 ADD SWAP1 POP DUP2 DUP2 SUB PUSH0 DUP4 ADD MSTORE PUSH2 0xFD3 DUP2 PUSH2 0xF9A JUMP JUMPDEST SWAP1 POP SWAP2 SWAP1 POP JUMP JUMPDEST PUSH0 PUSH2 0xFE4 DUP3 PUSH2 0x829 JUMP JUMPDEST SWAP2 POP PUSH32 0xFFFFFFFFFFFFFFFFFFFFFFFFFFFFFFFFFFFFFFFFFFFFFFFFFFFFFFFFFFFFFFFF DUP3 SUB PUSH2 0x1016 JUMPI PUSH2 0x1015 PUSH2 0xC49 JUMP JUMPDEST JUMPDEST PUSH1 0x1 DUP3 ADD SWAP1 POP SWAP2 SWAP1 POP JUMP INVALID LOG2 PUSH5 0x6970667358 0x22 SLT KECCAK256 RETURN CREATE2 CALLF 0x46A4 JUMPDEST 0xB3 CHAINID 0xA5 DUP8 SELFDESTRUCT DUPN 0xC SIGNEXTEND 0x21 SWAP15 0xAE 0xE9 MOD 0x28 0xAE SLOAD 0xB2 PUSH28 0xB747803C4935B20864736F6C634300081E0033000000000000000000 "
        }
    }
}